{
  "contractName": "Badge",
  "abi": [
    {
      "constant": true,
      "inputs": [
        {
          "name": "",
          "type": "uint256"
        }
      ],
      "name": "EntryAddresses",
      "outputs": [
        {
          "name": "",
          "type": "address"
        }
      ],
      "payable": false,
      "stateMutability": "view",
      "type": "function",
      "signature": "0x33bb39b2"
    },
    {
      "constant": true,
      "inputs": [],
      "name": "id",
      "outputs": [
        {
          "name": "",
          "type": "int8"
        }
      ],
      "payable": false,
      "stateMutability": "view",
      "type": "function",
      "signature": "0xaf640d0f"
    },
    {
      "inputs": [
        {
          "name": "_id",
          "type": "int8"
        }
      ],
      "payable": false,
      "stateMutability": "nonpayable",
      "type": "constructor",
      "signature": "constructor"
    },
    {
      "anonymous": false,
      "inputs": [
        {
          "indexed": false,
          "name": "data",
          "type": "string"
        }
      ],
      "name": "TransactionAdded",
      "type": "event",
      "signature": "0x92fbf807b440b62b30fdcb783bf63b656d8f8c8ae2ab5ebac573784c7e9c5e2f"
    },
    {
      "anonymous": false,
      "inputs": [
        {
          "indexed": false,
          "name": "id",
          "type": "int8"
        }
      ],
      "name": "BadgeCreated",
      "type": "event",
      "signature": "0x7d3e6ed4d50a80db7ade79a34f4789a63c66d895f2802088a6ae4dacabebffa5"
    },
    {
      "constant": false,
      "inputs": [
        {
          "name": "data",
          "type": "string"
        }
      ],
      "name": "addTransaction",
      "outputs": [
        {
          "name": "",
          "type": "address"
        }
      ],
      "payable": false,
      "stateMutability": "nonpayable",
      "type": "function",
      "signature": "0x517715f0"
    }
  ],
  "bytecode": "0x608060405234801561001057600080fd5b506040516020806109398339810180604052602081101561003057600080fd5b810190808051906020019092919050505080600060146101000a81548160ff021916908360000b60ff160217905550336000806101000a81548173ffffffffffffffffffffffffffffffffffffffff021916908373ffffffffffffffffffffffffffffffffffffffff1602179055507f7d3e6ed4d50a80db7ade79a34f4789a63c66d895f2802088a6ae4dacabebffa5600060149054906101000a900460000b604051808260000b60000b815260200191505060405180910390a15061083e806100fb6000396000f3fe608060405260043610610057576000357c0100000000000000000000000000000000000000000000000000000000900463ffffffff16806333bb39b21461005c578063517715f0146100d7578063af640d0f146101df575b600080fd5b34801561006857600080fd5b506100956004803603602081101561007f57600080fd5b8101908080359060200190929190505050610210565b604051808273ffffffffffffffffffffffffffffffffffffffff1673ffffffffffffffffffffffffffffffffffffffff16815260200191505060405180910390f35b3480156100e357600080fd5b5061019d600480360360208110156100fa57600080fd5b810190808035906020019064010000000081111561011757600080fd5b82018360208201111561012957600080fd5b8035906020019184600183028401116401000000008311171561014b57600080fd5b91908080601f016020809104026020016040519081016040528093929190818152602001838380828437600081840152601f19601f82011690508083019250505050505050919291929050505061024e565b604051808273ffffffffffffffffffffffffffffffffffffffff1673ffffffffffffffffffffffffffffffffffffffff16815260200191505060405180910390f35b3480156101eb57600080fd5b506101f46104b8565b604051808260000b60000b815260200191505060405180910390f35b60018181548110151561021f57fe5b906000526020600020016000915054906101000a900473ffffffffffffffffffffffffffffffffffffffff1681565b60008060009054906101000a900473ffffffffffffffffffffffffffffffffffffffff1673ffffffffffffffffffffffffffffffffffffffff163373ffffffffffffffffffffffffffffffffffffffff16141515610314576040517f08c379a00000000000000000000000000000000000000000000000000000000081526004018080602001828103825260198152602001807f4f6e6c79206f776e65722063616e2063616c6c20746869732e0000000000000081525060200191505060405180910390fd5b60008261031f6104cb565b8080602001828103825283818151815260200191508051906020019080838360005b8381101561035c578082015181840152602081019050610341565b50505050905090810190601f1680156103895780820380516001836020036101000a031916815260200191505b5092505050604051809103906000f0801580156103aa573d6000803e3d6000fd5b50905060018190806001815401808255809150509060018203906000526020600020016000909192909190916101000a81548173ffffffffffffffffffffffffffffffffffffffff021916908373ffffffffffffffffffffffffffffffffffffffff160217905550507f92fbf807b440b62b30fdcb783bf63b656d8f8c8ae2ab5ebac573784c7e9c5e2f836040518080602001828103825283818151815260200191508051906020019080838360005b8381101561047557808201518184015260208101905061045a565b50505050905090810190601f1680156104a25780820380516001836020036101000a031916815260200191505b509250505060405180910390a180915050919050565b600060149054906101000a900460000b81565b604051610337806104dc8339019056fe608060405234801561001057600080fd5b506040516103373803806103378339810180604052602081101561003357600080fd5b81019080805164010000000081111561004b57600080fd5b8281019050602081018481111561006157600080fd5b815185600182028301116401000000008211171561007e57600080fd5b5050929190505050336000806101000a81548173ffffffffffffffffffffffffffffffffffffffff021916908373ffffffffffffffffffffffffffffffffffffffff16021790555080600190805190602001906100dc9291906100e3565b5050610188565b828054600181600116156101000203166002900490600052602060002090601f016020900481019282601f1061012457805160ff1916838001178555610152565b82800160010185558215610152579182015b82811115610151578251825591602001919060010190610136565b5b50905061015f9190610163565b5090565b61018591905b80821115610181576000816000905550600101610169565b5090565b90565b6101a0806101976000396000f3fe608060405260043610610041576000357c0100000000000000000000000000000000000000000000000000000000900463ffffffff16806373d4a13a14610046575b600080fd5b34801561005257600080fd5b5061005b6100d6565b6040518080602001828103825283818151815260200191508051906020019080838360005b8381101561009b578082015181840152602081019050610080565b50505050905090810190601f1680156100c85780820380516001836020036101000a031916815260200191505b509250505060405180910390f35b60018054600181600116156101000203166002900480601f01602080910402602001604051908101604052809291908181526020018280546001816001161561010002031660029004801561016c5780601f106101415761010080835404028352916020019161016c565b820191906000526020600020905b81548152906001019060200180831161014f57829003601f168201915b50505050508156fea165627a7a72305820cb9608c4267f988351c1c3bbae8066827bec17becb2ee215d7a7137824548db50029a165627a7a7230582083da77d64ae4ab87ff9271368d0edc764b734bef365a2cb28a847957023d921d0029",
  "source": "pragma solidity ^0.5.0;\n\ncontract Transaction {\n    address badgeAddr;\n    string public data;\n\n    constructor(string memory _data) public {\n        badgeAddr = msg.sender;\n        data = _data;\n    }\n}\n\ncontract Badge {\n    address private owner;\n    int8 public id;\n    address[] public EntryAddresses;\n    event TransactionAdded(string data);\n    event BadgeCreated(int8 id);\n\n    constructor(int8 _id) public {\n        id = _id;\n        owner = msg.sender;\n        emit BadgeCreated(id);\n    }\n\n    modifier onlyOwner() {\n        require(\n            msg.sender == owner,\n            \"Only owner can call this.\"\n        );\n        _;\n    }\n\n    function addTransaction(string memory data) public onlyOwner returns (address) {\n        address transactionAddr = address(new Transaction(data));\n        EntryAddresses.push(transactionAddr);\n        emit TransactionAdded(data);\n\n        return transactionAddr;\n    }\n}\n",
  "sourcePath": "/Users/chmarus/Documents/license.rocks/topia-api/truffle/contracts/Badge.sol",
  "compiler": {
    "name": "solc",
    "version": "0.5.0+commit.1d4f565a.Emscripten.clang"
  },
  "schemaVersion": "3.0.6",
  "updatedAt": "2019-05-10T10:36:35.303Z",
  "devdoc": {
    "methods": {}
  },
  "userdoc": {
    "methods": {}
  }
}