{
  "contractName": "Transaction",
  "abi": [
    {
      "constant": true,
      "inputs": [],
      "name": "data",
      "outputs": [
        {
          "name": "",
          "type": "string"
        }
      ],
      "payable": false,
      "stateMutability": "view",
      "type": "function"
    },
    {
      "inputs": [
        {
          "name": "_data",
          "type": "string"
        }
      ],
      "payable": false,
      "stateMutability": "nonpayable",
      "type": "constructor"
    }
  ],
  "bytecode": "0x608060405234801561001057600080fd5b506040516103373803806103378339810180604052602081101561003357600080fd5b81019080805164010000000081111561004b57600080fd5b8281019050602081018481111561006157600080fd5b815185600182028301116401000000008211171561007e57600080fd5b5050929190505050336000806101000a81548173ffffffffffffffffffffffffffffffffffffffff021916908373ffffffffffffffffffffffffffffffffffffffff16021790555080600190805190602001906100dc9291906100e3565b5050610188565b828054600181600116156101000203166002900490600052602060002090601f016020900481019282601f1061012457805160ff1916838001178555610152565b82800160010185558215610152579182015b82811115610151578251825591602001919060010190610136565b5b50905061015f9190610163565b5090565b61018591905b80821115610181576000816000905550600101610169565b5090565b90565b6101a0806101976000396000f3fe608060405260043610610041576000357c0100000000000000000000000000000000000000000000000000000000900463ffffffff16806373d4a13a14610046575b600080fd5b34801561005257600080fd5b5061005b6100d6565b6040518080602001828103825283818151815260200191508051906020019080838360005b8381101561009b578082015181840152602081019050610080565b50505050905090810190601f1680156100c85780820380516001836020036101000a031916815260200191505b509250505060405180910390f35b60018054600181600116156101000203166002900480601f01602080910402602001604051908101604052809291908181526020018280546001816001161561010002031660029004801561016c5780601f106101415761010080835404028352916020019161016c565b820191906000526020600020905b81548152906001019060200180831161014f57829003601f168201915b50505050508156fea165627a7a72305820cb9608c4267f988351c1c3bbae8066827bec17becb2ee215d7a7137824548db50029",
  "source": "pragma solidity ^0.5.0;\n\ncontract Transaction {\n    address badgeAddr;\n    string public data;\n\n    constructor(string memory _data) public {\n        badgeAddr = msg.sender;\n        data = _data;\n    }\n}\n\ncontract Badge {\n    address private owner;\n    int8 public id;\n    address[] public EntryAddresses;\n    event TransactionAdded(string data);\n    event BadgeCreated(int8 id);\n\n    constructor(int8 _id) public {\n        id = _id;\n        owner = msg.sender;\n        emit BadgeCreated(id);\n    }\n\n    modifier onlyOwner() {\n        require(\n            msg.sender == owner,\n            \"Only owner can call this.\"\n        );\n        _;\n    }\n\n    function addTransaction(string memory data) public onlyOwner returns (address) {\n        address transactionAddr = address(new Transaction(data));\n        EntryAddresses.push(transactionAddr);\n        emit TransactionAdded(data);\n\n        return transactionAddr;\n    }\n}\n",
  "sourcePath": "/Users/chmarus/Documents/license.rocks/topia-api/truffle/contracts/Badge.sol",
  "compiler": {
    "name": "solc",
    "version": "0.5.0+commit.1d4f565a.Emscripten.clang"
  },
  "schemaVersion": "3.0.6",
  "updatedAt": "2019-05-10T10:32:03.495Z",
  "devdoc": {
    "methods": {}
  },
  "userdoc": {
    "methods": {}
  }
}